{
  "_format": "hh-sol-artifact-1",
  "contractName": "RecieveEth",
  "sourceName": "contracts/RecieveEth.sol",
  "abi": [
    {
      "inputs": [],
      "name": "balanceReceived",
      "outputs": [
        {
          "internalType": "uint256",
          "name": "",
          "type": "uint256"
        }
      ],
      "stateMutability": "view",
      "type": "function"
    },
    {
      "inputs": [],
      "name": "getBalance",
      "outputs": [
        {
          "internalType": "uint256",
          "name": "",
          "type": "uint256"
        }
      ],
      "stateMutability": "view",
      "type": "function"
    },
    {
      "inputs": [],
      "name": "receiveMoney",
      "outputs": [],
      "stateMutability": "payable",
      "type": "function"
    },
    {
      "inputs": [],
      "name": "withdrawMoney",
      "outputs": [],
      "stateMutability": "nonpayable",
      "type": "function"
    }
  ],
  "bytecode": "0x608060405234801561001057600080fd5b50610206806100206000396000f3fe60806040526004361061003f5760003560e01c806312065fe01461004457806352a90c421461006f5780636d26ec181461009a578063ac446002146100a4575b600080fd5b34801561005057600080fd5b506100596100bb565b6040516100669190610152565b60405180910390f35b34801561007b57600080fd5b506100846100c3565b6040516100919190610152565b60405180910390f35b6100a26100c9565b005b3480156100b057600080fd5b506100b96100e3565b005b600047905090565b60005481565b346000808282546100da919061019c565b92505081905550565b60003390508073ffffffffffffffffffffffffffffffffffffffff166108fc61010a6100bb565b9081150290604051600060405180830381858888f19350505050158015610135573d6000803e3d6000fd5b5050565b6000819050919050565b61014c81610139565b82525050565b60006020820190506101676000830184610143565b92915050565b7f4e487b7100000000000000000000000000000000000000000000000000000000600052601160045260246000fd5b60006101a782610139565b91506101b283610139565b92508282019050808211156101ca576101c961016d565b5b9291505056fea2646970667358221220787d06e76a768c5cca39c60ca58947e197ffac7e907a7fa5fa5202b7b2f3ce4d64736f6c63430008180033",
  "linkReferences": {},
  "deployedLinkReferences": {}
}