{
  "_format": "hh-sol-artifact-1",
  "contractName": "TransferEth",
  "sourceName": "contracts/TransferEth.sol",
  "abi": [
    {
      "inputs": [],
      "name": "getBalance",
      "outputs": [
        {
          "internalType": "uint256",
          "name": "",
          "type": "uint256"
        }
      ],
      "stateMutability": "view",
      "type": "function"
    },
    {
      "inputs": [
        {
          "internalType": "address payable",
          "name": "recipient",
          "type": "address"
        }
      ],
      "name": "transferEther",
      "outputs": [],
      "stateMutability": "payable",
      "type": "function"
    },
    {
      "inputs": [
        {
          "internalType": "address payable",
          "name": "to",
          "type": "address"
        }
      ],
      "name": "withdrawMoney",
      "outputs": [],
      "stateMutability": "nonpayable",
      "type": "function"
    }
  ],
  "bytecode": "0x608060405234801561001057600080fd5b50610208806100206000396000f3fe6080604052600436106100345760003560e01c806312065fe0146100395780632f971029146100645780636b55e9911461008d575b600080fd5b34801561004557600080fd5b5061004e6100a9565b60405161005b9190610127565b60405180910390f35b34801561007057600080fd5b5061008b600480360381019061008691906101a5565b6100b1565b005b6100a760048036038101906100a291906101a5565b610102565b005b600047905090565b8073ffffffffffffffffffffffffffffffffffffffff166108fc6100d36100a9565b9081150290604051600060405180830381858888f193505050501580156100fe573d6000803e3d6000fd5b5050565b61010b816100b1565b50565b6000819050919050565b6101218161010e565b82525050565b600060208201905061013c6000830184610118565b92915050565b600080fd5b600073ffffffffffffffffffffffffffffffffffffffff82169050919050565b600061017282610147565b9050919050565b61018281610167565b811461018d57600080fd5b50565b60008135905061019f81610179565b92915050565b6000602082840312156101bb576101ba610142565b5b60006101c984828501610190565b9150509291505056fea2646970667358221220fdca2e4440769b188f13fe038c41e3e281740ec2fea1a2daecf1eae536a29db264736f6c63430008180033",
  "linkReferences": {},
  "deployedLinkReferences": {}
}